:100000000C9434000C943E000C943E000C943E0082
:100010000C943E000C943E000C943E000C943E0068
:100020000C943E000C943E000C943E000C943E0058
:100030000C943E000C943E000C943E000C943E0048
:100040000C943E000C943E000C943E000C943E0038
:100050000C943E000C943E000C943E000C943E0028
:100060000C943E000C943E0011241FBECFEFD8E04C
:10007000DEBFCDBF0E94E9010C940C020C9400007D
:10008000FC01118210820895CF93DF93EC019A0155
:10009000AB012B833C836D835E8360E074E284EF6D
:1000A00090E00E94EA012051310941095109569519
:1000B0004795379527952093B80087B1806387B916
:1000C00088B18F6C88B9E9EBF0E080818C7F808308
:1000D0008EEF8093BC0081E090E099838883DF916C
:1000E000CF910895FA01C90124EA2093BC00209120
:1000F000BC0027FFFCCF2091B900287F283009F0F1
:1001000045C01092BB002091BB00660F622B60932C
:10011000BB0024E82093BC002091BC0027FFFCCF4B
:100120002091B900287F283179F51092BB0024E88E
:100130002093BC002091BC0027FFFCCF2091B90088
:10014000287FE80FF91F34E8283291F083E0089502
:10015000DC012D91CD012093BB003093BC00209198
:10016000BC0027FFFCCF2091B900287F283281F402
:100170008E179F0769F784E98093BC008FE891E0B0
:100180000197F1F700C0000082E0089581E0089532
:1001900084E0089584EA8093BC008091BC0087FFCE
:1001A000FCCF9091B900987F81E0983009F480E00D
:1001B00008951092BB008091BB00660F682B60937E
:1001C000BB0084E88093BC008091BC0087FFFCCF1B
:1001D0009091B900987F81E0983109F480E0880F10
:1001E000089524E92093BC0029E030E0FC0131832C
:1001F000208308958091BC0087FFFCCF0895089567
:100200000895440F551F80E090E02115F1F0841708
:100210009507F0F425B1262725B93FEF74E32CE0CC
:10022000315070402040E1F700C000000196EFCF50
:1002300025B1262725B92FE738E371E0215030405A
:100240007040E1F700C0000001968417950780F325
:100250008FEF90E42AE0815090402040E1F700C009
:1002600000000895CF92DF92EF92FF920F931F93B9
:10027000CF93DF93D82FC92FF62EE42E690184EA9D
:100280008093BC008D2F0E94FA008091B900887F76
:100290008830E9F020E04DE050E060E28D2F9C2FA7
:1002A0000E9401012FEF89E698E1215080409040A3
:1002B000E1F700C000008091B900887FDF91CF9105
:1002C0001F910F91FF90EF90DF90CF90089521E064
:1002D00041E050E060E28D2F9C2F0E940101FF0C55
:1002E000F092BB0034E8F32EF092BC008D2F9C2FCF
:1002F0000E94FA008091B900887F883181F020E067
:1003000043E050E060E28D2F9C2F0E940101EFEF4F
:10031000F9E628E1E150F0402040E1F7CACF21E0C2
:1003200042E050E060E28D2F9C2F0E9401018FEF90
:1003300099E6E8E181509040E040E1F700C000001C
:100340001092BB00F092BC008D2F9C2F0E94FA00EF
:1003500081E08093BB00F092BC0080E48093BB00FE
:10036000F092BC00C601FE2CFC0CDD24D39424E8E2
:10037000E22EF81215C020E047E050E060E28D2F39
:100380009C2F0E94010180E98093BC0020E041E0A5
:1003900050E060E28D2F9C2F0E94010182E08ECF01
:1003A000D092BB00E092BC00FC0181918F01809350
:1003B000BB00E092BC008D2F9C2F0E94FA0020E031
:1003C00041E050E060E28D2F9C2F0E940101C801A6
:1003D000D0CFFFCFA1E21A2EAA1BBB1BFD010DC07F
:1003E000AA1FBB1FEE1FFF1FA217B307E407F507E5
:1003F00020F0A21BB30BE40BF50B661F771F881FC1
:10040000991F1A9469F760957095809590959B0156
:0C041000AC01BD01CF010895F894FFCFAE
:00000001FF
