:100000000C9434000C943E000C943E000C943E0082
:100010000C943E000C943E000C943E000C943E0068
:100020000C943E000C943E000C943E000C943E0058
:100030000C943E000C943E000C943E000C943E0048
:100040000C943E000C943E000C943E000C943E0038
:100050000C943E000C943E000C943E000C943E0028
:100060000C943E000C943E0011241FBECFEFD8E04C
:10007000DEBFCDBF0E9458000C945B000C940000C2
:10008000259A2D9A2FE78AE196E0215080409040F2
:10009000E1F700C000002D982FE78FE492E1215096
:1000A00080409040E1F700C0000081E090E00895BA
:0A00B0000E944000FDCFF894FFCF3E
:00000001FF
