:100000000C9434000C9451000C9451000C94510049
:100010000C9451000C9451000C9451000C9451001C
:100020000C9451000C9451000C9451000C9451000C
:100030000C9451000C9451000C9451000C945100FC
:100040000C9451000C9451000C9451000C945100EC
:100050000C9451000C9451000C9451000C945100DC
:100060000C9451000C94510011241FBECFEFD8E026
:10007000DEBFCDBF13E0A0E0B1E0E2E9FDE002C0E9
:1000800005900D92A434B107D9F723E0A4E4B3E0BE
:1000900001C01D92A834B207E1F70E948D040C94B0
:1000A000C7060C94000081E0089508950A960C9408
:1000B000E7020F931F93CF93DF930F92CDB7DEB775
:1000C0008C018EEA89839E012F5F3F4F41E050E013
:1000D000F8016681C8010A960E941903F801118689
:1000E0000F90DF91CF911F910F9108950F931F9360
:1000F000CF93DF930F92CDB7DEB78C018FEA898360
:100100009E012F5F3F4F41E050E0F8016681C8013A
:100110000A960E94190381E0F80181870F90DF9110
:10012000CF911F910F910895EF92FF920F93CF936C
:10013000DF93FC01D9012781249FC001259F900DE9
:10014000112445E0469F9001479F300D1124820FF6
:10015000931F9583848365E0015030F4DF91CF9144
:100160000F91FF90EF90089580E090E04C91405205
:10017000550B649F9001659F300D1124245F3E4F05
:10018000E901C80FD91F4881C081D18124813581FF
:1001900079015FEFE51AF50AF582E482C20FD31FF9
:1001A000488301968530910509F71196D5CFFC015A
:1001B00084EA8093BC008091BC0087FFFCCF8091D3
:1001C000B900887F883009F04BC01092BB00909135
:1001D000BB008681880F892B8093BB0084E88093C5
:1001E000BC008091BC0087FFFCCF8091B900887F64
:1001F0008831C1F580E48093BB0084E88093BC0023
:100200008091BC0087FFFCCF8091B900887F883245
:1002100059F58081918122813381280F391F54E85B
:100220008217930759F484E98093BC0087EC90E02F
:100230000197F1F700C0000080E00895FC014191B2
:10024000CF014093BB005093BC004091BC0047FFDE
:10025000FCCF4091B900487F483211F385E0089502
:1002600081E0089582E0089584E00895FC014281D0
:10027000538160E070E0808191810C94B9066F92A7
:100280007F928F929F92AF92BF92CF92DF92EF9226
:10029000FF920F931F93CF93DF9300D00F92CDB7B0
:1002A000DEB77C01662EA42EB22E702E26952695E2
:1002B0002695240360011124FC01D382C282C60169
:1002C0000E949205F701918380838701065F1F4F8B
:1002D000892BC9F420E0A60160E2C8010E94A803AE
:1002E0008AEA0F900F900F90DF91CF911F910F919D
:1002F000FF90EF90DF90CF90BF90AF909F908F9046
:100300007F906F900895A782B086668215821482CE
:1003100040E85AE166E070E0C8010E94EB028EEA14
:1003200089839E012F5F3F4F41E050E0F7016681D6
:10033000C8010E94190388EA9FE39A8389839E017A
:100340002F5F3F4F42E050E0F7016681C8010E94F5
:10035000190383ED90E09A8389839E012F5F3F4FBD
:1003600042E050E0F7016681C8010E94190380E273
:1003700090E09A8389839E012F5F3F4F42E050E0D7
:10038000F7016681C8010E941903809106019091CE
:100390000701A091080189839A83AB839E012F5F97
:1003A0003F4F43E050E0F7016681C8010E94190306
:1003B0008091090190910A01A0910B0189839A8390
:1003C000AB839E012F5F3F4F43E050E0F701668112
:1003D000C8010E94190381EA89839E012F5F3F4F64
:1003E00041E050E0F7016681C8010E94190388ECE2
:1003F00089839E012F5F3F4F41E050E0F701668106
:10040000C8010E94190380EB89839E012F5F3F4F33
:1004100041E050E0F7016681C8010E9419038AEDAE
:1004200092E19A8389839E012F5F3F4F42E050E023
:10043000F7016681C8010E94190381E889837A82E5
:100440009E012F5F3F4F42E050E0F7016681C801F7
:100450000E94190384EA89839E012F5F3F4F41E088
:1004600050E0F7016681C8010E94190386EA89837A
:100470009E012F5F3F4F41E050E0F7016681C801C8
:100480000E94190385ED90E89A8389839E012F5F6E
:100490003F4F42E050E0F7016681C8010E94190316
:1004A00080913F0390914003A091410389839A83F7
:1004B000AB839E012F5F3F4F43E050E0F701668121
:1004C000C8010E9419038FEA89839E012F5F3F4F65
:1004D00041E050E0F7016681C8010E94190381E004
:1004E000F7018187C7010E943601C7010E94D7002A
:1004F00080ECF7CE0F931F93CF93DF93FC018B011A
:10050000DA01E901808191810097A1F077FD12C0A5
:1005100027816217710574F457FD0CC030854317AD
:10052000510544F4C130D10551F0C230D105C1F1BB
:10053000CD2BD9F0DF91CF911F910F91089573E0EA
:10054000559547957A95E1F74203F0011124E00FA4
:10055000F11FE80FF91FA770BB2701C0CC0FAA95A8
:10056000EAF780818C2B8083E5CF63E05595479532
:100570006A95E1F74203F0011124E00FF11FE80F43
:10058000F91FA770BB2781E090E09C0102C0220FF9
:10059000331FAA95E2F7D901A09580818A23E3CF82
:1005A00033E0559547953A95E1F74203F001112460
:1005B000E60FF71FE80FF91FA770BB2721E030E017
:1005C00001C0220FAA95EAF780818227CCCFFC01D7
:1005D000118210820895CF93DF93EC019A01AB0151
:1005E0002B833C836D835E8360E072E18AE790E059
:1005F0000E947005205131094109510956954795CE
:10060000379527952093B80087B1806387B988B163
:100610008F6C88B9E9EBF0E080818C7F80838EEF6E
:100620008093BC0081E090E099838883DF91CF9133
:100630000895FA01C90124EA2093BC002091BC006E
:1006400027FFFCCF2091B900287F283009F045C052
:100650001092BB002091BB00660F622B6093BB0021
:1006600024E82093BC002091BC0027FFFCCF209100
:10067000B900287F283179F51092BB0024E8209337
:10068000BC002091BC0027FFFCCF2091B900287F3F
:10069000E80FF91F34E8283291F083E00895DC0177
:1006A0002D91CD012093BB003093BC002091BC0064
:1006B00027FFFCCF2091B900287F283281F48E17C4
:1006C0009F0769F784E98093BC0087EC90E001976D
:1006D000F1F700C0000082E0089581E0089584E011
:1006E000089584EA8093BC008091BC0087FFFCCF12
:1006F0009091B900987F81E0983009F480E00895E6
:100700001092BB008091BB00660F682B6093BB000A
:1007100084E88093BC008091BC0087FFFCCF90915F
:10072000B900987F81E0983109F480E0880F08953E
:1007300024E92093BC0029E030E0FC0131832083D0
:1007400008958091BC0087FFFCCF08950895089517
:10075000440F551F80E090E02115D9F084179507CC
:10076000D8F425B1262725B97FE7EAE1F6E07150F4
:10077000E040F040E1F700C000000196EFCF25B166
:10078000262725B9EFE4F3EC3197F1F700C000001C
:1007900001968417950798F3FFE720E235E0F150C2
:1007A00020403040E1F700C000000895CF92DF9272
:1007B000EF92FF920F931F93CF93DF93D82FC92F00
:1007C000F62EE42E690184EA8093BC008D2F0E94EE
:1007D000A1038091B900887F8830E9F020E04DE0E6
:1007E00050E060E28D2F9C2F0E94A8032FEF84E33E
:1007F0009CE0215080409040E1F700C000008091D3
:10080000B900887FDF91CF911F910F91FF90EF90FA
:10081000DF90CF90089521E041E050E060E28D2F1D
:100820009C2F0E94A803FF0CF092BB0034E8F32E2B
:10083000F092BC008D2F9C2F0E94A1038091B900E3
:10084000887F883181F020E043E050E060E28D2F26
:100850009C2F0E94A803EFEFF4E32CE0E150F0405E
:100860002040E1F7CACF21E042E050E060E28D2F66
:100870009C2F0E94A8038FEF94E3ECE081509040FE
:10088000E040E1F700C000001092BB00F092BC0015
:100890008D2F9C2F0E94A10381E08093BB00F092DA
:1008A000BC0080E48093BB00F092BC00C601FE2C2B
:1008B000FC0CDD24D39424E8E22EF81215C020E0CD
:1008C00047E050E060E28D2F9C2F0E94A80380E952
:1008D0008093BC0020E041E050E060E28D2F9C2F2F
:1008E0000E94A80382E08ECFD092BB00E092BC00B1
:1008F000FC0181918F018093BB00E092BC008D2FA1
:100900009C2F0E94A10320E041E050E060E28D2F87
:100910009C2F0E94A803C801D0CFCDB7DEB7AA97FD
:100920000FB6F894DEBF0FBECDBF5E012AE1A20E66
:10093000B11CC5010E945600259A7E0184E2E80E92
:10094000F11C20E047E050E060E2C7010E94A803EC
:100950009FEF29E688E1915020408040E1F700C0F8
:10096000000021E043E050E060E2C7010E94A803DC
:100970009FEF29E688E1915020408040E1F700C0D8
:10098000000000E320E440E86CE3C5010E943F0161
:10099000282FDA2C1B2DC701243031F158F42230D6
:1009A000D9F02330E9F0213079F021E044E150E042
:1009B00060E20FC02A3AE1F0203CF1F02530A9F7BF
:1009C00021E049E050E003C021E042E050E060E275
:1009D000C7010E94A80321C021E043E050E0F7CF07
:1009E00021E045E050E0F3CF21E047E050E0EFCFD9
:1009F00020E04DE050E0EBCF21E041E050E060E24C
:100A00000E94A8039FEF29E688E191502040804092
:100A1000E1F700C0000080E285B98D2D912F0E9482
:100A2000360167EE72E0CE0101967C010E94C0069D
:100A3000F70101900020E9F73197EE19FF090E2F19
:100A4000970140E050E060E070E08D2D912F0E9412
:100A500094006CEF72E0C7010E94C006F70101909C
:100A60000020E9F73197EE19FF090E2F970141E0B9
:100A700050E060E070E08D2D912F0E94940064E1C1
:100A800073E0C7010E94C006F70101900020E9F75A
:100A90003197EE19FF090E2F970142E050E060E018
:100AA00070E08D2D912F0E9494006CE273E0C701DD
:100AB0000E94C006F70101900020E9F73197EE1976
:100AC000FF090E2F970143E050E060E070E08D2DAC
:100AD000912F0E9494008D2D912F0E94D700FFCF5F
:100AE000A1E21A2EAA1BBB1BFD010DC0AA1FBB1F32
:100AF000EE1FFF1FA217B307E407F50720F0A21BA4
:100B0000B30BE40BF50B661F771F881F991F1A9410
:100B100069F760957095809590959B01AC01BD013A
:100B2000CF0108950F931F93CF93DF939C010297FA
:100B300010F422E030E0E0914403F091450380E0BE
:100B400090E0A0E0B0E0309791F4009709F448C03D
:100B5000821B930B84309105D0F58A819B816115AE
:100B6000710581F1FB0193838283FE0111C04081F5
:100B700051810281138142175307D8F0421753075E
:100B800099F4109761F012960C93129713961C9398
:100B90003296CF01DF91CF911F910F91089500936D
:100BA000440310934503F4CF009751F048175907B9
:100BB00038F0AC01DB01CA01BD01DF01F801C3CF90
:100BC000EF01F9CF9093450380934403CECFFE010C
:100BD000E80FF91F21933193029799838883D9CF26
:100BE00040914603509147034115510541F440910E
:100BF00002015091030150934703409346038091B3
:100C0000000190910101009741F48DB79EB760916A
:100C1000040170910501861B970B4817590708F0CE
:100C2000B8CF841B950B8217930708F4B2CFB90194
:100C30006E5F7F4F8617970708F4ABCF640F751F61
:100C40007093470360934603FA0121933193A1CF38
:100C5000CF93DF939C010097E9F0FC013297138258
:100C60001282C0914403D0914503DE0180E090E000
:100C70002097A1F480819181280F391F809146032C
:100C8000909147038217930709F068C0F0934703D8
:100C9000E0934603DF91CF910895DA01AE17BF07C5
:100CA00008F042C012964D915C911397CD01411509
:100CB000510599F7DC011396FC93EE9312974D9131
:100CC0005D919D01240F351FE217F30781F4208108
:100CD00031812E5F3F4F240F351FDC0111963C936D
:100CE0002E932281338113963C932E931297E0E04A
:100CF000F0E08A819B810097B1F5DE018D919D9195
:100D00008A0F9B1F2091460330914703281739070C
:100D100009F6309759F51092450310924403D09389
:100D20004703C0934603B6CFB383A283408151816A
:100D3000240F351FA217B30771F44E5F5F4F2D913B
:100D40003C911197240F351F3183208312962D91EA
:100D50003C9133832283009709F0ACCFF093450395
:100D6000E093440397CFFE01EC01C3CF13821282BC
:100D7000D6CFDC0101C06D9341505040E0F708959B
:100D8000FB01DC0101900D920020E1F70895F89439
:020D9000FFCF93
:100D920000004803200021007F220007000000001D
:100DA2000000005F00000007000700147E147E149C
:100DB200242A7F2A122313086462364955225000DE
:100DC20005030000001C2241000041221C001408FF
:100DD2003E081408083E08080050300000080808C1
:100DE2000808006060000020100804023E514945D6
:100DF2003E00427F400042615149462141454B310C
:100E02001814127F1027454545393C4A494930019B
:100E1200710905033649494936064949291E0036F2
:100E22003600000056360000081422410014141443
:100E32001414004122140802015109063249794171
:100E42003E7E1111117E7F494949363E4141412280
:100E52007F4141221C7F494949417F090909013EDD
:100E62004149497A7F0808087F00417F41002040BC
:100E7200413F017F081422417F404040407F020CE5
:100E8200027F7F0408107F3E4141413E7F090909EC
:100E9200063E4151215E7F09192946464949493199
:100EA20001017F01013F4040403F1F2040201F3F82
:100EB2004038403F63140814630708700807615103
:100EC200494543007F41410002040810200041418E
:100ED2007F0004020102044040404040000102043D
:100EE2000020545454787F484444383844444420C1
:100EF200384444487F3854545418087E0901020C7F
:100F02005252523E7F0804047800447D4000204043
:100F1200443D007F1028440000417F40007C0418BB
:100F220004787C0804047838444444387C1414144B
:100F320008081414187C7C080404084854545420EB
:100F4200043F4440203C4040207C1C2040201C3C6C
:100F52004030403C44281028440C5050503C4464DB
:100F6200544C44000836410000007F000000413626
:100F720008001008081008303A204F4C45442D74E0
:100F82006573742070726F6772616D00313A20620E
:100F920079204A6F6E204C6569746865202D203275
:100FA20030323400323A2042617265626F6E6520DF
:100FB200432B2B206F6E206172647500333A2057E9
:100FC20061746572666C6F772078206C2F6D008D6E
:040FD20014AF000058
:00000001FF
